{"abi":[{"type":"constructor","inputs":[{"name":"_puppyRaffleAddress","type":"address","internalType":"address"}],"stateMutability":"nonpayable"},{"type":"receive","stateMutability":"payable"},{"type":"function","name":"AMOUNT","inputs":[],"outputs":[{"name":"","type":"uint256","internalType":"uint256"}],"stateMutability":"view"},{"type":"function","name":"attack","inputs":[],"outputs":[],"stateMutability":"payable"},{"type":"function","name":"getBalance","inputs":[],"outputs":[{"name":"","type":"uint256","internalType":"uint256"}],"stateMutability":"view"}],"bytecode":{"object":"0x608060405234801561001057600080fd5b5060405161047d38038061047d8339818101604052602081101561003357600080fd5b5051600080546001600160a01b039092166001600160a01b0319909216919091179055610418806100656000396000f3fe6080604052600436106100385760003560e01c806312065fe0146101415780639e5faafc14610168578063d1789176146101705761013c565b3661013c57600054670de0b6b3a76400006001600160a01b03909116311061013a57600080546040805163db2cea7560e01b815230600482015290516001600160a01b039092169163db2cea7591602480820192602092909190829003018186803b1580156100a657600080fd5b505afa1580156100ba573d6000803e3d6000fd5b505050506040513d60208110156100d057600080fd5b5051600080546040805163278ecde160e01b81526004810185905290519394506001600160a01b039091169263278ecde19260248084019391929182900301818387803b15801561012057600080fd5b505af1158015610134573d6000803e3d6000fd5b50505050505b005b600080fd5b34801561014d57600080fd5b50610156610185565b60408051918252519081900360200190f35b61013a610189565b34801561017c57600080fd5b506101566103d6565b4790565b6040805160018082528183019092526000916020808301908036833701905050905030816000815181106101b957fe5b6001600160a01b039283166020918202929092010152600054670de0b6b3a764000091163110156101e957600080fd5b6000546040805163649677e160e01b815290516001600160a01b039092169163e1a0f7e791839163649677e191600480820192602092909190829003018186803b15801561023657600080fd5b505afa15801561024a573d6000803e3d6000fd5b505050506040513d602081101561026057600080fd5b50516040516001600160e01b031960e084901b16815260206004820181815286516024840152865187939192839260440191858201910280838360005b838110156102b557818101518382015260200161029d565b50505050905001925050506000604051808303818588803b1580156102d957600080fd5b505af11580156102ed573d6000803e3d6000fd5b5050600080546040805163db2cea7560e01b815230600482015290519295506001600160a01b03909116935063db2cea759250602480820192602092909190829003018186803b15801561034057600080fd5b505afa158015610354573d6000803e3d6000fd5b505050506040513d602081101561036a57600080fd5b5051600080546040805163278ecde160e01b81526004810185905290519394506001600160a01b039091169263278ecde19260248084019391929182900301818387803b1580156103ba57600080fd5b505af11580156103ce573d6000803e3d6000fd5b505050505050565b670de0b6b3a76400008156fea264697066735822122055f85e1dc427d09a5a12d904cc284811caa74b2a58d60aabee4b7a0b993517a064736f6c63430007060033","linkReferences":{}},"methodIdentifiers":{"AMOUNT()":"d1789176","attack()":"9e5faafc","getBalance()":"12065fe0"},"id":39}